{
  "_format": "hh-sol-artifact-1",
  "contractName": "LensHub",
  "sourceName": "contracts/core/LensHub.sol",
  "abi": [
    {
      "inputs": [
        {
          "internalType": "address",
          "name": "followNFTImpl",
          "type": "address"
        },
        {
          "internalType": "address",
          "name": "collectNFTImpl",
          "type": "address"
        }
      ],
      "stateMutability": "nonpayable",
      "type": "constructor"
    },
    {
      "inputs": [],
      "name": "CallerNotCollectNFT",
      "type": "error"
    },
    {
      "inputs": [],
      "name": "CallerNotFollowNFT",
      "type": "error"
    },
    {
      "inputs": [],
      "name": "CannotInitImplementation",
      "type": "error"
    },
    {
      "inputs": [],
      "name": "EmergencyAdminCannotUnpause",
      "type": "error"
    },
    {
      "inputs": [],
      "name": "InitParamsInvalid",
      "type": "error"
    },
    {
      "inputs": [],
      "name": "Initialized",
      "type": "error"
    },
    {
      "inputs": [],
      "name": "NotGovernance",
      "type": "error"
    },
    {
      "inputs": [],
      "name": "NotGovernanceOrEmergencyAdmin",
      "type": "error"
    },
    {
      "inputs": [],
      "name": "NotOwnerOrApproved",
      "type": "error"
    },
    {
      "inputs": [],
      "name": "NotProfileOwner",
      "type": "error"
    },
    {
      "inputs": [],
      "name": "NotProfileOwnerOrDispatcher",
      "type": "error"
    },
    {
      "inputs": [],
      "name": "Paused",
      "type": "error"
    },
    {
      "inputs": [],
      "name": "ProfileImageURILengthInvalid",
      "type": "error"
    },
    {
      "inputs": [],
      "name": "PublicationDoesNotExist",
      "type": "error"
    },
    {
      "inputs": [],
      "name": "PublishingPaused",
      "type": "error"
    },
    {
      "inputs": [],
      "name": "SignatureExpired",
      "type": "error"
    },
    {
      "inputs": [],
      "name": "SignatureInvalid",
      "type": "error"
    },
    {
      "inputs": [],
      "name": "ZeroSpender",
      "type": "error"
    },
    {
      "anonymous": false,
      "inputs": [
        {
          "indexed": true,
          "internalType": "address",
          "name": "owner",
          "type": "address"
        },
        {
          "indexed": true,
          "internalType": "address",
          "name": "approved",
          "type": "address"
        },
        {
          "indexed": true,
          "internalType": "uint256",
          "name": "tokenId",
          "type": "uint256"
        }
      ],
      "name": "Approval",
      "type": "event"
    },
    {
      "anonymous": false,
      "inputs": [
        {
          "indexed": true,
          "internalType": "address",
          "name": "owner",
          "type": "address"
        },
        {
          "indexed": true,
          "internalType": "address",
          "name": "operator",
          "type": "address"
        },
        {
          "indexed": false,
          "internalType": "bool",
          "name": "approved",
          "type": "bool"
        }
      ],
      "name": "ApprovalForAll",
      "type": "event"
    },
    {
      "anonymous": false,
      "inputs": [
        {
          "indexed": true,
          "internalType": "address",
          "name": "from",
          "type": "address"
        },
        {
          "indexed": true,
          "internalType": "address",
          "name": "to",
          "type": "address"
        },
        {
          "indexed": true,
          "internalType": "uint256",
          "name": "tokenId",
          "type": "uint256"
        }
      ],
      "name": "Transfer",
      "type": "event"
    },
    {
      "inputs": [
        {
          "internalType": "address",
          "name": "to",
          "type": "address"
        },
        {
          "internalType": "uint256",
          "name": "tokenId",
          "type": "uint256"
        }
      ],
      "name": "approve",
      "outputs": [],
      "stateMutability": "nonpayable",
      "type": "function"
    },
    {
      "inputs": [
        {
          "internalType": "address",
          "name": "owner",
          "type": "address"
        }
      ],
      "name": "balanceOf",
      "outputs": [
        {
          "internalType": "uint256",
          "name": "",
          "type": "uint256"
        }
      ],
      "stateMutability": "view",
      "type": "function"
    },
    {
      "inputs": [
        {
          "internalType": "uint256",
          "name": "tokenId",
          "type": "uint256"
        }
      ],
      "name": "burn",
      "outputs": [],
      "stateMutability": "nonpayable",
      "type": "function"
    },
    {
      "inputs": [
        {
          "internalType": "uint256",
          "name": "tokenId",
          "type": "uint256"
        },
        {
          "components": [
            {
              "internalType": "uint8",
              "name": "v",
              "type": "uint8"
            },
            {
              "internalType": "bytes32",
              "name": "r",
              "type": "bytes32"
            },
            {
              "internalType": "bytes32",
              "name": "s",
              "type": "bytes32"
            },
            {
              "internalType": "uint256",
              "name": "deadline",
              "type": "uint256"
            }
          ],
          "internalType": "struct DataTypes.EIP712Signature",
          "name": "sig",
          "type": "tuple"
        }
      ],
      "name": "burnWithSig",
      "outputs": [],
      "stateMutability": "nonpayable",
      "type": "function"
    },
    {
      "inputs": [
        {
          "internalType": "uint256",
          "name": "profileId",
          "type": "uint256"
        },
        {
          "internalType": "uint256",
          "name": "pubId",
          "type": "uint256"
        },
        {
          "internalType": "bytes",
          "name": "data",
          "type": "bytes"
        }
      ],
      "name": "collect",
      "outputs": [
        {
          "internalType": "uint256",
          "name": "",
          "type": "uint256"
        }
      ],
      "stateMutability": "nonpayable",
      "type": "function"
    },
    {
      "inputs": [
        {
          "components": [
            {
              "internalType": "address",
              "name": "collector",
              "type": "address"
            },
            {
              "internalType": "uint256",
              "name": "profileId",
              "type": "uint256"
            },
            {
              "internalType": "uint256",
              "name": "pubId",
              "type": "uint256"
            },
            {
              "internalType": "bytes",
              "name": "data",
              "type": "bytes"
            },
            {
              "components": [
                {
                  "internalType": "uint8",
                  "name": "v",
                  "type": "uint8"
                },
                {
                  "internalType": "bytes32",
                  "name": "r",
                  "type": "bytes32"
                },
                {
                  "internalType": "bytes32",
                  "name": "s",
                  "type": "bytes32"
                },
                {
                  "internalType": "uint256",
                  "name": "deadline",
                  "type": "uint256"
                }
              ],
              "internalType": "struct DataTypes.EIP712Signature",
              "name": "sig",
              "type": "tuple"
            }
          ],
          "internalType": "struct DataTypes.CollectWithSigData",
          "name": "vars",
          "type": "tuple"
        }
      ],
      "name": "collectWithSig",
      "outputs": [
        {
          "internalType": "uint256",
          "name": "",
          "type": "uint256"
        }
      ],
      "stateMutability": "nonpayable",
      "type": "function"
    },
    {
      "inputs": [
        {
          "components": [
            {
              "internalType": "uint256",
              "name": "profileId",
              "type": "uint256"
            },
            {
              "internalType": "string",
              "name": "contentURI",
              "type": "string"
            },
            {
              "internalType": "uint256",
              "name": "profileIdPointed",
              "type": "uint256"
            },
            {
              "internalType": "uint256",
              "name": "pubIdPointed",
              "type": "uint256"
            },
            {
              "internalType": "bytes",
              "name": "referenceModuleData",
              "type": "bytes"
            },
            {
              "internalType": "address",
              "name": "collectModule",
              "type": "address"
            },
            {
              "internalType": "bytes",
              "name": "collectModuleInitData",
              "type": "bytes"
            },
            {
              "internalType": "address",
              "name": "referenceModule",
              "type": "address"
            },
            {
              "internalType": "bytes",
              "name": "referenceModuleInitData",
              "type": "bytes"
            }
          ],
          "internalType": "struct DataTypes.CommentData",
          "name": "vars",
          "type": "tuple"
        }
      ],
      "name": "comment",
      "outputs": [
        {
          "internalType": "uint256",
          "name": "",
          "type": "uint256"
        }
      ],
      "stateMutability": "nonpayable",
      "type": "function"
    },
    {
      "inputs": [
        {
          "components": [
            {
              "internalType": "uint256",
              "name": "profileId",
              "type": "uint256"
            },
            {
              "internalType": "string",
              "name": "contentURI",
              "type": "string"
            },
            {
              "internalType": "uint256",
              "name": "profileIdPointed",
              "type": "uint256"
            },
            {
              "internalType": "uint256",
              "name": "pubIdPointed",
              "type": "uint256"
            },
            {
              "internalType": "bytes",
              "name": "referenceModuleData",
              "type": "bytes"
            },
            {
              "internalType": "address",
              "name": "collectModule",
              "type": "address"
            },
            {
              "internalType": "bytes",
              "name": "collectModuleInitData",
              "type": "bytes"
            },
            {
              "internalType": "address",
              "name": "referenceModule",
              "type": "address"
            },
            {
              "internalType": "bytes",
              "name": "referenceModuleInitData",
              "type": "bytes"
            },
            {
              "components": [
                {
                  "internalType": "uint8",
                  "name": "v",
                  "type": "uint8"
                },
                {
                  "internalType": "bytes32",
                  "name": "r",
                  "type": "bytes32"
                },
                {
                  "internalType": "bytes32",
                  "name": "s",
                  "type": "bytes32"
                },
                {
                  "internalType": "uint256",
                  "name": "deadline",
                  "type": "uint256"
                }
              ],
              "internalType": "struct DataTypes.EIP712Signature",
              "name": "sig",
              "type": "tuple"
            }
          ],
          "internalType": "struct DataTypes.CommentWithSigData",
          "name": "vars",
          "type": "tuple"
        }
      ],
      "name": "commentWithSig",
      "outputs": [
        {
          "internalType": "uint256",
          "name": "",
          "type": "uint256"
        }
      ],
      "stateMutability": "nonpayable",
      "type": "function"
    },
    {
      "inputs": [
        {
          "components": [
            {
              "internalType": "address",
              "name": "to",
              "type": "address"
            },
            {
              "internalType": "string",
              "name": "handle",
              "type": "string"
            },
            {
              "internalType": "string",
              "name": "imageURI",
              "type": "string"
            },
            {
              "internalType": "address",
              "name": "followModule",
              "type": "address"
            },
            {
              "internalType": "bytes",
              "name": "followModuleInitData",
              "type": "bytes"
            },
            {
              "internalType": "string",
              "name": "followNFTURI",
              "type": "string"
            }
          ],
          "internalType": "struct DataTypes.CreateProfileData",
          "name": "vars",
          "type": "tuple"
        }
      ],
      "name": "createProfile",
      "outputs": [
        {
          "internalType": "uint256",
          "name": "",
          "type": "uint256"
        }
      ],
      "stateMutability": "nonpayable",
      "type": "function"
    },
    {
      "inputs": [
        {
          "internalType": "address",
          "name": "wallet",
          "type": "address"
        }
      ],
      "name": "defaultProfile",
      "outputs": [
        {
          "internalType": "uint256",
          "name": "",
          "type": "uint256"
        }
      ],
      "stateMutability": "view",
      "type": "function"
    },
    {
      "inputs": [
        {
          "internalType": "uint256",
          "name": "profileId",
          "type": "uint256"
        },
        {
          "internalType": "uint256",
          "name": "pubId",
          "type": "uint256"
        },
        {
          "internalType": "uint256",
          "name": "collectNFTId",
          "type": "uint256"
        },
        {
          "internalType": "address",
          "name": "from",
          "type": "address"
        },
        {
          "internalType": "address",
          "name": "to",
          "type": "address"
        }
      ],
      "name": "emitCollectNFTTransferEvent",
      "outputs": [],
      "stateMutability": "nonpayable",
      "type": "function"
    },
    {
      "inputs": [
        {
          "internalType": "uint256",
          "name": "profileId",
          "type": "uint256"
        },
        {
          "internalType": "uint256",
          "name": "followNFTId",
          "type": "uint256"
        },
        {
          "internalType": "address",
          "name": "from",
          "type": "address"
        },
        {
          "internalType": "address",
          "name": "to",
          "type": "address"
        }
      ],
      "name": "emitFollowNFTTransferEvent",
      "outputs": [],
      "stateMutability": "nonpayable",
      "type": "function"
    },
    {
      "inputs": [
        {
          "internalType": "uint256",
          "name": "tokenId",
          "type": "uint256"
        }
      ],
      "name": "exists",
      "outputs": [
        {
          "internalType": "bool",
          "name": "",
          "type": "bool"
        }
      ],
      "stateMutability": "view",
      "type": "function"
    },
    {
      "inputs": [
        {
          "internalType": "uint256[]",
          "name": "profileIds",
          "type": "uint256[]"
        },
        {
          "internalType": "bytes[]",
          "name": "datas",
          "type": "bytes[]"
        }
      ],
      "name": "follow",
      "outputs": [
        {
          "internalType": "uint256[]",
          "name": "",
          "type": "uint256[]"
        }
      ],
      "stateMutability": "nonpayable",
      "type": "function"
    },
    {
      "inputs": [
        {
          "components": [
            {
              "internalType": "address",
              "name": "follower",
              "type": "address"
            },
            {
              "internalType": "uint256[]",
              "name": "profileIds",
              "type": "uint256[]"
            },
            {
              "internalType": "bytes[]",
              "name": "datas",
              "type": "bytes[]"
            },
            {
              "components": [
                {
                  "internalType": "uint8",
                  "name": "v",
                  "type": "uint8"
                },
                {
                  "internalType": "bytes32",
                  "name": "r",
                  "type": "bytes32"
                },
                {
                  "internalType": "bytes32",
                  "name": "s",
                  "type": "bytes32"
                },
                {
                  "internalType": "uint256",
                  "name": "deadline",
                  "type": "uint256"
                }
              ],
              "internalType": "struct DataTypes.EIP712Signature",
              "name": "sig",
              "type": "tuple"
            }
          ],
          "internalType": "struct DataTypes.FollowWithSigData",
          "name": "vars",
          "type": "tuple"
        }
      ],
      "name": "followWithSig",
      "outputs": [
        {
          "internalType": "uint256[]",
          "name": "",
          "type": "uint256[]"
        }
      ],
      "stateMutability": "nonpayable",
      "type": "function"
    },
    {
      "inputs": [
        {
          "internalType": "uint256",
          "name": "tokenId",
          "type": "uint256"
        }
      ],
      "name": "getApproved",
      "outputs": [
        {
          "internalType": "address",
          "name": "",
          "type": "address"
        }
      ],
      "stateMutability": "view",
      "type": "function"
    },
    {
      "inputs": [
        {
          "internalType": "uint256",
          "name": "profileId",
          "type": "uint256"
        },
        {
          "internalType": "uint256",
          "name": "pubId",
          "type": "uint256"
        }
      ],
      "name": "getCollectModule",
      "outputs": [
        {
          "internalType": "address",
          "name": "",
          "type": "address"
        }
      ],
      "stateMutability": "view",
      "type": "function"
    },
    {
      "inputs": [
        {
          "internalType": "uint256",
          "name": "profileId",
          "type": "uint256"
        },
        {
          "internalType": "uint256",
          "name": "pubId",
          "type": "uint256"
        }
      ],
      "name": "getCollectNFT",
      "outputs": [
        {
          "internalType": "address",
          "name": "",
          "type": "address"
        }
      ],
      "stateMutability": "view",
      "type": "function"
    },
    {
      "inputs": [],
      "name": "getCollectNFTImpl",
      "outputs": [
        {
          "internalType": "address",
          "name": "",
          "type": "address"
        }
      ],
      "stateMutability": "view",
      "type": "function"
    },
    {
      "inputs": [
        {
          "internalType": "uint256",
          "name": "profileId",
          "type": "uint256"
        },
        {
          "internalType": "uint256",
          "name": "pubId",
          "type": "uint256"
        }
      ],
      "name": "getContentURI",
      "outputs": [
        {
          "internalType": "string",
          "name": "",
          "type": "string"
        }
      ],
      "stateMutability": "view",
      "type": "function"
    },
    {
      "inputs": [
        {
          "internalType": "uint256",
          "name": "profileId",
          "type": "uint256"
        }
      ],
      "name": "getDispatcher",
      "outputs": [
        {
          "internalType": "address",
          "name": "",
          "type": "address"
        }
      ],
      "stateMutability": "view",
      "type": "function"
    },
    {
      "inputs": [],
      "name": "getDomainSeparator",
      "outputs": [
        {
          "internalType": "bytes32",
          "name": "",
          "type": "bytes32"
        }
      ],
      "stateMutability": "view",
      "type": "function"
    },
    {
      "inputs": [
        {
          "internalType": "uint256",
          "name": "profileId",
          "type": "uint256"
        }
      ],
      "name": "getFollowModule",
      "outputs": [
        {
          "internalType": "address",
          "name": "",
          "type": "address"
        }
      ],
      "stateMutability": "view",
      "type": "function"
    },
    {
      "inputs": [
        {
          "internalType": "uint256",
          "name": "profileId",
          "type": "uint256"
        }
      ],
      "name": "getFollowNFT",
      "outputs": [
        {
          "internalType": "address",
          "name": "",
          "type": "address"
        }
      ],
      "stateMutability": "view",
      "type": "function"
    },
    {
      "inputs": [],
      "name": "getFollowNFTImpl",
      "outputs": [
        {
          "internalType": "address",
          "name": "",
          "type": "address"
        }
      ],
      "stateMutability": "view",
      "type": "function"
    },
    {
      "inputs": [
        {
          "internalType": "uint256",
          "name": "profileId",
          "type": "uint256"
        }
      ],
      "name": "getFollowNFTURI",
      "outputs": [
        {
          "internalType": "string",
          "name": "",
          "type": "string"
        }
      ],
      "stateMutability": "view",
      "type": "function"
    },
    {
      "inputs": [],
      "name": "getGovernance",
      "outputs": [
        {
          "internalType": "address",
          "name": "",
          "type": "address"
        }
      ],
      "stateMutability": "view",
      "type": "function"
    },
    {
      "inputs": [
        {
          "internalType": "uint256",
          "name": "profileId",
          "type": "uint256"
        }
      ],
      "name": "getHandle",
      "outputs": [
        {
          "internalType": "string",
          "name": "",
          "type": "string"
        }
      ],
      "stateMutability": "view",
      "type": "function"
    },
    {
      "inputs": [
        {
          "internalType": "uint256",
          "name": "profileId",
          "type": "uint256"
        }
      ],
      "name": "getProfile",
      "outputs": [
        {
          "components": [
            {
              "internalType": "uint256",
              "name": "pubCount",
              "type": "uint256"
            },
            {
              "internalType": "address",
              "name": "followModule",
              "type": "address"
            },
            {
              "internalType": "address",
              "name": "followNFT",
              "type": "address"
            },
            {
              "internalType": "string",
              "name": "handle",
              "type": "string"
            },
            {
              "internalType": "string",
              "name": "imageURI",
              "type": "string"
            },
            {
              "internalType": "string",
              "name": "followNFTURI",
              "type": "string"
            }
          ],
          "internalType": "struct DataTypes.ProfileStruct",
          "name": "",
          "type": "tuple"
        }
      ],
      "stateMutability": "view",
      "type": "function"
    },
    {
      "inputs": [
        {
          "internalType": "string",
          "name": "handle",
          "type": "string"
        }
      ],
      "name": "getProfileIdByHandle",
      "outputs": [
        {
          "internalType": "uint256",
          "name": "",
          "type": "uint256"
        }
      ],
      "stateMutability": "view",
      "type": "function"
    },
    {
      "inputs": [
        {
          "internalType": "uint256",
          "name": "profileId",
          "type": "uint256"
        },
        {
          "internalType": "uint256",
          "name": "pubId",
          "type": "uint256"
        }
      ],
      "name": "getPub",
      "outputs": [
        {
          "components": [
            {
              "internalType": "uint256",
              "name": "profileIdPointed",
              "type": "uint256"
            },
            {
              "internalType": "uint256",
              "name": "pubIdPointed",
              "type": "uint256"
            },
            {
              "internalType": "string",
              "name": "contentURI",
              "type": "string"
            },
            {
              "internalType": "address",
              "name": "referenceModule",
              "type": "address"
            },
            {
              "internalType": "address",
              "name": "collectModule",
              "type": "address"
            },
            {
              "internalType": "address",
              "name": "collectNFT",
              "type": "address"
            }
          ],
          "internalType": "struct DataTypes.PublicationStruct",
          "name": "",
          "type": "tuple"
        }
      ],
      "stateMutability": "view",
      "type": "function"
    },
    {
      "inputs": [
        {
          "internalType": "uint256",
          "name": "profileId",
          "type": "uint256"
        }
      ],
      "name": "getPubCount",
      "outputs": [
        {
          "internalType": "uint256",
          "name": "",
          "type": "uint256"
        }
      ],
      "stateMutability": "view",
      "type": "function"
    },
    {
      "inputs": [
        {
          "internalType": "uint256",
          "name": "profileId",
          "type": "uint256"
        },
        {
          "internalType": "uint256",
          "name": "pubId",
          "type": "uint256"
        }
      ],
      "name": "getPubPointer",
      "outputs": [
        {
          "internalType": "uint256",
          "name": "",
          "type": "uint256"
        },
        {
          "internalType": "uint256",
          "name": "",
          "type": "uint256"
        }
      ],
      "stateMutability": "view",
      "type": "function"
    },
    {
      "inputs": [
        {
          "internalType": "uint256",
          "name": "profileId",
          "type": "uint256"
        },
        {
          "internalType": "uint256",
          "name": "pubId",
          "type": "uint256"
        }
      ],
      "name": "getPubType",
      "outputs": [
        {
          "internalType": "enum DataTypes.PubType",
          "name": "",
          "type": "uint8"
        }
      ],
      "stateMutability": "view",
      "type": "function"
    },
    {
      "inputs": [
        {
          "internalType": "uint256",
          "name": "profileId",
          "type": "uint256"
        },
        {
          "internalType": "uint256",
          "name": "pubId",
          "type": "uint256"
        }
      ],
      "name": "getReferenceModule",
      "outputs": [
        {
          "internalType": "address",
          "name": "",
          "type": "address"
        }
      ],
      "stateMutability": "view",
      "type": "function"
    },
    {
      "inputs": [],
      "name": "getState",
      "outputs": [
        {
          "internalType": "enum DataTypes.ProtocolState",
          "name": "",
          "type": "uint8"
        }
      ],
      "stateMutability": "view",
      "type": "function"
    },
    {
      "inputs": [
        {
          "internalType": "string",
          "name": "name",
          "type": "string"
        },
        {
          "internalType": "string",
          "name": "symbol",
          "type": "string"
        },
        {
          "internalType": "address",
          "name": "newGovernance",
          "type": "address"
        }
      ],
      "name": "initialize",
      "outputs": [],
      "stateMutability": "nonpayable",
      "type": "function"
    },
    {
      "inputs": [
        {
          "internalType": "address",
          "name": "owner",
          "type": "address"
        },
        {
          "internalType": "address",
          "name": "operator",
          "type": "address"
        }
      ],
      "name": "isApprovedForAll",
      "outputs": [
        {
          "internalType": "bool",
          "name": "",
          "type": "bool"
        }
      ],
      "stateMutability": "view",
      "type": "function"
    },
    {
      "inputs": [
        {
          "internalType": "address",
          "name": "collectModule",
          "type": "address"
        }
      ],
      "name": "isCollectModuleWhitelisted",
      "outputs": [
        {
          "internalType": "bool",
          "name": "",
          "type": "bool"
        }
      ],
      "stateMutability": "view",
      "type": "function"
    },
    {
      "inputs": [
        {
          "internalType": "address",
          "name": "followModule",
          "type": "address"
        }
      ],
      "name": "isFollowModuleWhitelisted",
      "outputs": [
        {
          "internalType": "bool",
          "name": "",
          "type": "bool"
        }
      ],
      "stateMutability": "view",
      "type": "function"
    },
    {
      "inputs": [
        {
          "internalType": "address",
          "name": "profileCreator",
          "type": "address"
        }
      ],
      "name": "isProfileCreatorWhitelisted",
      "outputs": [
        {
          "internalType": "bool",
          "name": "",
          "type": "bool"
        }
      ],
      "stateMutability": "view",
      "type": "function"
    },
    {
      "inputs": [
        {
          "internalType": "address",
          "name": "referenceModule",
          "type": "address"
        }
      ],
      "name": "isReferenceModuleWhitelisted",
      "outputs": [
        {
          "internalType": "bool",
          "name": "",
          "type": "bool"
        }
      ],
      "stateMutability": "view",
      "type": "function"
    },
    {
      "inputs": [
        {
          "internalType": "uint256",
          "name": "tokenId",
          "type": "uint256"
        }
      ],
      "name": "mintTimestampOf",
      "outputs": [
        {
          "internalType": "uint256",
          "name": "",
          "type": "uint256"
        }
      ],
      "stateMutability": "view",
      "type": "function"
    },
    {
      "inputs": [
        {
          "components": [
            {
              "internalType": "uint256",
              "name": "profileId",
              "type": "uint256"
            },
            {
              "internalType": "uint256",
              "name": "profileIdPointed",
              "type": "uint256"
            },
            {
              "internalType": "uint256",
              "name": "pubIdPointed",
              "type": "uint256"
            },
            {
              "internalType": "bytes",
              "name": "referenceModuleData",
              "type": "bytes"
            },
            {
              "internalType": "address",
              "name": "referenceModule",
              "type": "address"
            },
            {
              "internalType": "bytes",
              "name": "referenceModuleInitData",
              "type": "bytes"
            }
          ],
          "internalType": "struct DataTypes.MirrorData",
          "name": "vars",
          "type": "tuple"
        }
      ],
      "name": "mirror",
      "outputs": [
        {
          "internalType": "uint256",
          "name": "",
          "type": "uint256"
        }
      ],
      "stateMutability": "nonpayable",
      "type": "function"
    },
    {
      "inputs": [
        {
          "components": [
            {
              "internalType": "uint256",
              "name": "profileId",
              "type": "uint256"
            },
            {
              "internalType": "uint256",
              "name": "profileIdPointed",
              "type": "uint256"
            },
            {
              "internalType": "uint256",
              "name": "pubIdPointed",
              "type": "uint256"
            },
            {
              "internalType": "bytes",
              "name": "referenceModuleData",
              "type": "bytes"
            },
            {
              "internalType": "address",
              "name": "referenceModule",
              "type": "address"
            },
            {
              "internalType": "bytes",
              "name": "referenceModuleInitData",
              "type": "bytes"
            },
            {
              "components": [
                {
                  "internalType": "uint8",
                  "name": "v",
                  "type": "uint8"
                },
                {
                  "internalType": "bytes32",
                  "name": "r",
                  "type": "bytes32"
                },
                {
                  "internalType": "bytes32",
                  "name": "s",
                  "type": "bytes32"
                },
                {
                  "internalType": "uint256",
                  "name": "deadline",
                  "type": "uint256"
                }
              ],
              "internalType": "struct DataTypes.EIP712Signature",
              "name": "sig",
              "type": "tuple"
            }
          ],
          "internalType": "struct DataTypes.MirrorWithSigData",
          "name": "vars",
          "type": "tuple"
        }
      ],
      "name": "mirrorWithSig",
      "outputs": [
        {
          "internalType": "uint256",
          "name": "",
          "type": "uint256"
        }
      ],
      "stateMutability": "nonpayable",
      "type": "function"
    },
    {
      "inputs": [],
      "name": "name",
      "outputs": [
        {
          "internalType": "string",
          "name": "",
          "type": "string"
        }
      ],
      "stateMutability": "view",
      "type": "function"
    },
    {
      "inputs": [
        {
          "internalType": "uint256",
          "name": "tokenId",
          "type": "uint256"
        }
      ],
      "name": "ownerOf",
      "outputs": [
        {
          "internalType": "address",
          "name": "",
          "type": "address"
        }
      ],
      "stateMutability": "view",
      "type": "function"
    },
    {
      "inputs": [
        {
          "internalType": "address",
          "name": "spender",
          "type": "address"
        },
        {
          "internalType": "uint256",
          "name": "tokenId",
          "type": "uint256"
        },
        {
          "components": [
            {
              "internalType": "uint8",
              "name": "v",
              "type": "uint8"
            },
            {
              "internalType": "bytes32",
              "name": "r",
              "type": "bytes32"
            },
            {
              "internalType": "bytes32",
              "name": "s",
              "type": "bytes32"
            },
            {
              "internalType": "uint256",
              "name": "deadline",
              "type": "uint256"
            }
          ],
          "internalType": "struct DataTypes.EIP712Signature",
          "name": "sig",
          "type": "tuple"
        }
      ],
      "name": "permit",
      "outputs": [],
      "stateMutability": "nonpayable",
      "type": "function"
    },
    {
      "inputs": [
        {
          "internalType": "address",
          "name": "owner",
          "type": "address"
        },
        {
          "internalType": "address",
          "name": "operator",
          "type": "address"
        },
        {
          "internalType": "bool",
          "name": "approved",
          "type": "bool"
        },
        {
          "components": [
            {
              "internalType": "uint8",
              "name": "v",
              "type": "uint8"
            },
            {
              "internalType": "bytes32",
              "name": "r",
              "type": "bytes32"
            },
            {
              "internalType": "bytes32",
              "name": "s",
              "type": "bytes32"
            },
            {
              "internalType": "uint256",
              "name": "deadline",
              "type": "uint256"
            }
          ],
          "internalType": "struct DataTypes.EIP712Signature",
          "name": "sig",
          "type": "tuple"
        }
      ],
      "name": "permitForAll",
      "outputs": [],
      "stateMutability": "nonpayable",
      "type": "function"
    },
    {
      "inputs": [
        {
          "components": [
            {
              "internalType": "uint256",
              "name": "profileId",
              "type": "uint256"
            },
            {
              "internalType": "string",
              "name": "contentURI",
              "type": "string"
            },
            {
              "internalType": "address",
              "name": "collectModule",
              "type": "address"
            },
            {
              "internalType": "bytes",
              "name": "collectModuleInitData",
              "type": "bytes"
            },
            {
              "internalType": "address",
              "name": "referenceModule",
              "type": "address"
            },
            {
              "internalType": "bytes",
              "name": "referenceModuleInitData",
              "type": "bytes"
            }
          ],
          "internalType": "struct DataTypes.PostData",
          "name": "vars",
          "type": "tuple"
        }
      ],
      "name": "post",
      "outputs": [
        {
          "internalType": "uint256",
          "name": "",
          "type": "uint256"
        }
      ],
      "stateMutability": "nonpayable",
      "type": "function"
    },
    {
      "inputs": [
        {
          "components": [
            {
              "internalType": "uint256",
              "name": "profileId",
              "type": "uint256"
            },
            {
              "internalType": "string",
              "name": "contentURI",
              "type": "string"
            },
            {
              "internalType": "address",
              "name": "collectModule",
              "type": "address"
            },
            {
              "internalType": "bytes",
              "name": "collectModuleInitData",
              "type": "bytes"
            },
            {
              "internalType": "address",
              "name": "referenceModule",
              "type": "address"
            },
            {
              "internalType": "bytes",
              "name": "referenceModuleInitData",
              "type": "bytes"
            },
            {
              "components": [
                {
                  "internalType": "uint8",
                  "name": "v",
                  "type": "uint8"
                },
                {
                  "internalType": "bytes32",
                  "name": "r",
                  "type": "bytes32"
                },
                {
                  "internalType": "bytes32",
                  "name": "s",
                  "type": "bytes32"
                },
                {
                  "internalType": "uint256",
                  "name": "deadline",
                  "type": "uint256"
                }
              ],
              "internalType": "struct DataTypes.EIP712Signature",
              "name": "sig",
              "type": "tuple"
            }
          ],
          "internalType": "struct DataTypes.PostWithSigData",
          "name": "vars",
          "type": "tuple"
        }
      ],
      "name": "postWithSig",
      "outputs": [
        {
          "internalType": "uint256",
          "name": "",
          "type": "uint256"
        }
      ],
      "stateMutability": "nonpayable",
      "type": "function"
    },
    {
      "inputs": [
        {
          "internalType": "address",
          "name": "from",
          "type": "address"
        },
        {
          "internalType": "address",
          "name": "to",
          "type": "address"
        },
        {
          "internalType": "uint256",
          "name": "tokenId",
          "type": "uint256"
        }
      ],
      "name": "safeTransferFrom",
      "outputs": [],
      "stateMutability": "nonpayable",
      "type": "function"
    },
    {
      "inputs": [
        {
          "internalType": "address",
          "name": "from",
          "type": "address"
        },
        {
          "internalType": "address",
          "name": "to",
          "type": "address"
        },
        {
          "internalType": "uint256",
          "name": "tokenId",
          "type": "uint256"
        },
        {
          "internalType": "bytes",
          "name": "_data",
          "type": "bytes"
        }
      ],
      "name": "safeTransferFrom",
      "outputs": [],
      "stateMutability": "nonpayable",
      "type": "function"
    },
    {
      "inputs": [
        {
          "internalType": "address",
          "name": "operator",
          "type": "address"
        },
        {
          "internalType": "bool",
          "name": "approved",
          "type": "bool"
        }
      ],
      "name": "setApprovalForAll",
      "outputs": [],
      "stateMutability": "nonpayable",
      "type": "function"
    },
    {
      "inputs": [
        {
          "internalType": "uint256",
          "name": "profileId",
          "type": "uint256"
        }
      ],
      "name": "setDefaultProfile",
      "outputs": [],
      "stateMutability": "nonpayable",
      "type": "function"
    },
    {
      "inputs": [
        {
          "components": [
            {
              "internalType": "address",
              "name": "wallet",
              "type": "address"
            },
            {
              "internalType": "uint256",
              "name": "profileId",
              "type": "uint256"
            },
            {
              "components": [
                {
                  "internalType": "uint8",
                  "name": "v",
                  "type": "uint8"
                },
                {
                  "internalType": "bytes32",
                  "name": "r",
                  "type": "bytes32"
                },
                {
                  "internalType": "bytes32",
                  "name": "s",
                  "type": "bytes32"
                },
                {
                  "internalType": "uint256",
                  "name": "deadline",
                  "type": "uint256"
                }
              ],
              "internalType": "struct DataTypes.EIP712Signature",
              "name": "sig",
              "type": "tuple"
            }
          ],
          "internalType": "struct DataTypes.SetDefaultProfileWithSigData",
          "name": "vars",
          "type": "tuple"
        }
      ],
      "name": "setDefaultProfileWithSig",
      "outputs": [],
      "stateMutability": "nonpayable",
      "type": "function"
    },
    {
      "inputs": [
        {
          "internalType": "uint256",
          "name": "profileId",
          "type": "uint256"
        },
        {
          "internalType": "address",
          "name": "dispatcher",
          "type": "address"
        }
      ],
      "name": "setDispatcher",
      "outputs": [],
      "stateMutability": "nonpayable",
      "type": "function"
    },
    {
      "inputs": [
        {
          "components": [
            {
              "internalType": "uint256",
              "name": "profileId",
              "type": "uint256"
            },
            {
              "internalType": "address",
              "name": "dispatcher",
              "type": "address"
            },
            {
              "components": [
                {
                  "internalType": "uint8",
                  "name": "v",
                  "type": "uint8"
                },
                {
                  "internalType": "bytes32",
                  "name": "r",
                  "type": "bytes32"
                },
                {
                  "internalType": "bytes32",
                  "name": "s",
                  "type": "bytes32"
                },
                {
                  "internalType": "uint256",
                  "name": "deadline",
                  "type": "uint256"
                }
              ],
              "internalType": "struct DataTypes.EIP712Signature",
              "name": "sig",
              "type": "tuple"
            }
          ],
          "internalType": "struct DataTypes.SetDispatcherWithSigData",
          "name": "vars",
          "type": "tuple"
        }
      ],
      "name": "setDispatcherWithSig",
      "outputs": [],
      "stateMutability": "nonpayable",
      "type": "function"
    },
    {
      "inputs": [
        {
          "internalType": "address",
          "name": "newEmergencyAdmin",
          "type": "address"
        }
      ],
      "name": "setEmergencyAdmin",
      "outputs": [],
      "stateMutability": "nonpayable",
      "type": "function"
    },
    {
      "inputs": [
        {
          "internalType": "uint256",
          "name": "profileId",
          "type": "uint256"
        },
        {
          "internalType": "address",
          "name": "followModule",
          "type": "address"
        },
        {
          "internalType": "bytes",
          "name": "followModuleInitData",
          "type": "bytes"
        }
      ],
      "name": "setFollowModule",
      "outputs": [],
      "stateMutability": "nonpayable",
      "type": "function"
    },
    {
      "inputs": [
        {
          "components": [
            {
              "internalType": "uint256",
              "name": "profileId",
              "type": "uint256"
            },
            {
              "internalType": "address",
              "name": "followModule",
              "type": "address"
            },
            {
              "internalType": "bytes",
              "name": "followModuleInitData",
              "type": "bytes"
            },
            {
              "components": [
                {
                  "internalType": "uint8",
                  "name": "v",
                  "type": "uint8"
                },
                {
                  "internalType": "bytes32",
                  "name": "r",
                  "type": "bytes32"
                },
                {
                  "internalType": "bytes32",
                  "name": "s",
                  "type": "bytes32"
                },
                {
                  "internalType": "uint256",
                  "name": "deadline",
                  "type": "uint256"
                }
              ],
              "internalType": "struct DataTypes.EIP712Signature",
              "name": "sig",
              "type": "tuple"
            }
          ],
          "internalType": "struct DataTypes.SetFollowModuleWithSigData",
          "name": "vars",
          "type": "tuple"
        }
      ],
      "name": "setFollowModuleWithSig",
      "outputs": [],
      "stateMutability": "nonpayable",
      "type": "function"
    },
    {
      "inputs": [
        {
          "internalType": "uint256",
          "name": "profileId",
          "type": "uint256"
        },
        {
          "internalType": "string",
          "name": "followNFTURI",
          "type": "string"
        }
      ],
      "name": "setFollowNFTURI",
      "outputs": [],
      "stateMutability": "nonpayable",
      "type": "function"
    },
    {
      "inputs": [
        {
          "components": [
            {
              "internalType": "uint256",
              "name": "profileId",
              "type": "uint256"
            },
            {
              "internalType": "string",
              "name": "followNFTURI",
              "type": "string"
            },
            {
              "components": [
                {
                  "internalType": "uint8",
                  "name": "v",
                  "type": "uint8"
                },
                {
                  "internalType": "bytes32",
                  "name": "r",
                  "type": "bytes32"
                },
                {
                  "internalType": "bytes32",
                  "name": "s",
                  "type": "bytes32"
                },
                {
                  "internalType": "uint256",
                  "name": "deadline",
                  "type": "uint256"
                }
              ],
              "internalType": "struct DataTypes.EIP712Signature",
              "name": "sig",
              "type": "tuple"
            }
          ],
          "internalType": "struct DataTypes.SetFollowNFTURIWithSigData",
          "name": "vars",
          "type": "tuple"
        }
      ],
      "name": "setFollowNFTURIWithSig",
      "outputs": [],
      "stateMutability": "nonpayable",
      "type": "function"
    },
    {
      "inputs": [
        {
          "internalType": "address",
          "name": "newGovernance",
          "type": "address"
        }
      ],
      "name": "setGovernance",
      "outputs": [],
      "stateMutability": "nonpayable",
      "type": "function"
    },
    {
      "inputs": [
        {
          "internalType": "uint256",
          "name": "profileId",
          "type": "uint256"
        },
        {
          "internalType": "string",
          "name": "imageURI",
          "type": "string"
        }
      ],
      "name": "setProfileImageURI",
      "outputs": [],
      "stateMutability": "nonpayable",
      "type": "function"
    },
    {
      "inputs": [
        {
          "components": [
            {
              "internalType": "uint256",
              "name": "profileId",
              "type": "uint256"
            },
            {
              "internalType": "string",
              "name": "imageURI",
              "type": "string"
            },
            {
              "components": [
                {
                  "internalType": "uint8",
                  "name": "v",
                  "type": "uint8"
                },
                {
                  "internalType": "bytes32",
                  "name": "r",
                  "type": "bytes32"
                },
                {
                  "internalType": "bytes32",
                  "name": "s",
                  "type": "bytes32"
                },
                {
                  "internalType": "uint256",
                  "name": "deadline",
                  "type": "uint256"
                }
              ],
              "internalType": "struct DataTypes.EIP712Signature",
              "name": "sig",
              "type": "tuple"
            }
          ],
          "internalType": "struct DataTypes.SetProfileImageURIWithSigData",
          "name": "vars",
          "type": "tuple"
        }
      ],
      "name": "setProfileImageURIWithSig",
      "outputs": [],
      "stateMutability": "nonpayable",
      "type": "function"
    },
    {
      "inputs": [
        {
          "internalType": "enum DataTypes.ProtocolState",
          "name": "newState",
          "type": "uint8"
        }
      ],
      "name": "setState",
      "outputs": [],
      "stateMutability": "nonpayable",
      "type": "function"
    },
    {
      "inputs": [
        {
          "internalType": "address",
          "name": "",
          "type": "address"
        }
      ],
      "name": "sigNonces",
      "outputs": [
        {
          "internalType": "uint256",
          "name": "",
          "type": "uint256"
        }
      ],
      "stateMutability": "view",
      "type": "function"
    },
    {
      "inputs": [
        {
          "internalType": "bytes4",
          "name": "interfaceId",
          "type": "bytes4"
        }
      ],
      "name": "supportsInterface",
      "outputs": [
        {
          "internalType": "bool",
          "name": "",
          "type": "bool"
        }
      ],
      "stateMutability": "view",
      "type": "function"
    },
    {
      "inputs": [],
      "name": "symbol",
      "outputs": [
        {
          "internalType": "string",
          "name": "",
          "type": "string"
        }
      ],
      "stateMutability": "view",
      "type": "function"
    },
    {
      "inputs": [
        {
          "internalType": "uint256",
          "name": "index",
          "type": "uint256"
        }
      ],
      "name": "tokenByIndex",
      "outputs": [
        {
          "internalType": "uint256",
          "name": "",
          "type": "uint256"
        }
      ],
      "stateMutability": "view",
      "type": "function"
    },
    {
      "inputs": [
        {
          "internalType": "uint256",
          "name": "tokenId",
          "type": "uint256"
        }
      ],
      "name": "tokenDataOf",
      "outputs": [
        {
          "components": [
            {
              "internalType": "address",
              "name": "owner",
              "type": "address"
            },
            {
              "internalType": "uint96",
              "name": "mintTimestamp",
              "type": "uint96"
            }
          ],
          "internalType": "struct IERC721Time.TokenData",
          "name": "",
          "type": "tuple"
        }
      ],
      "stateMutability": "view",
      "type": "function"
    },
    {
      "inputs": [
        {
          "internalType": "address",
          "name": "owner",
          "type": "address"
        },
        {
          "internalType": "uint256",
          "name": "index",
          "type": "uint256"
        }
      ],
      "name": "tokenOfOwnerByIndex",
      "outputs": [
        {
          "internalType": "uint256",
          "name": "",
          "type": "uint256"
        }
      ],
      "stateMutability": "view",
      "type": "function"
    },
    {
      "inputs": [
        {
          "internalType": "uint256",
          "name": "tokenId",
          "type": "uint256"
        }
      ],
      "name": "tokenURI",
      "outputs": [
        {
          "internalType": "string",
          "name": "",
          "type": "string"
        }
      ],
      "stateMutability": "view",
      "type": "function"
    },
    {
      "inputs": [],
      "name": "totalSupply",
      "outputs": [
        {
          "internalType": "uint256",
          "name": "",
          "type": "uint256"
        }
      ],
      "stateMutability": "view",
      "type": "function"
    },
    {
      "inputs": [
        {
          "internalType": "address",
          "name": "from",
          "type": "address"
        },
        {
          "internalType": "address",
          "name": "to",
          "type": "address"
        },
        {
          "internalType": "uint256",
          "name": "tokenId",
          "type": "uint256"
        }
      ],
      "name": "transferFrom",
      "outputs": [],
      "stateMutability": "nonpayable",
      "type": "function"
    },
    {
      "inputs": [
        {
          "internalType": "address",
          "name": "collectModule",
          "type": "address"
        },
        {
          "internalType": "bool",
          "name": "whitelist",
          "type": "bool"
        }
      ],
      "name": "whitelistCollectModule",
      "outputs": [],
      "stateMutability": "nonpayable",
      "type": "function"
    },
    {
      "inputs": [
        {
          "internalType": "address",
          "name": "followModule",
          "type": "address"
        },
        {
          "internalType": "bool",
          "name": "whitelist",
          "type": "bool"
        }
      ],
      "name": "whitelistFollowModule",
      "outputs": [],
      "stateMutability": "nonpayable",
      "type": "function"
    },
    {
      "inputs": [
        {
          "internalType": "address",
          "name": "profileCreator",
          "type": "address"
        },
        {
          "internalType": "bool",
          "name": "whitelist",
          "type": "bool"
        }
      ],
      "name": "whitelistProfileCreator",
      "outputs": [],
      "stateMutability": "nonpayable",
      "type": "function"
    },
    {
      "inputs": [
        {
          "internalType": "address",
          "name": "referenceModule",
          "type": "address"
        },
        {
          "internalType": "bool",
          "name": "whitelist",
          "type": "bool"
        }
      ],
      "name": "whitelistReferenceModule",
      "outputs": [],
      "stateMutability": "nonpayable",
      "type": "function"
    }
  ],
  "bytecode": "0x60e06040526000600b553480156200001657600080fd5b506040516200607f3803806200607f8339810160408190526200003991620000c2565b306080526001600160a01b03821662000065576040516348be0eb360e01b815260040160405180910390fd5b6001600160a01b0381166200008d576040516348be0eb360e01b815260040160405180910390fd5b6001600160a01b0391821660a0521660c052620000fa565b80516001600160a01b0381168114620000bd57600080fd5b919050565b60008060408385031215620000d657600080fd5b620000e183620000a5565b9150620000f160208401620000a5565b90509250929050565b60805160a05160c051615f47620001386000396000818161082d01528181611fb301526127c30152600061061e01526000610d7c0152615f476000f3fe608060405234801561001057600080fd5b50600436106104805760003560e01c806384114ad411610257578063bd12d3f011610146578063dd69cdb1116100c3578063f08f4f6411610087578063f08f4f6414610c21578063f1b2f8bc14610c41578063f990ccd714610c54578063fb78ae6c14610c74578063ffea138e14610c8757600080fd5b8063dd69cdb114610ba4578063df457c3414610bb7578063e985e9c514610bca578063ec81d19414610c06578063ed24911d14610c1957600080fd5b8063c6b5d06c1161010a578063c6b5d06c14610b1f578063c736c99014610b32578063c87b56dd14610b52578063d923d20c14610b65578063dc21725314610b9157600080fd5b8063bd12d3f014610a93578063bdfdd4bc14610aa6578063bfbf0b4b14610ab9578063bfd24f4714610acc578063c0da9bcd14610adf57600080fd5b8063a6d8e1e4116101d4578063b48951e411610198578063b48951e414610a10578063b5a3149614610a23578063b6f32d2b14610a36578063b7984c0514610a49578063b88d4fde14610a8057600080fd5b8063a6d8e1e414610966578063a9ec656314610979578063ab033ea9146109a5578063ad3e72bf146109b8578063af05dd22146109e457600080fd5b806392254a621161021b57806392254a62146108fc57806395d89b4114610925578063963ff1411461092d5780639b84a14c14610940578063a22cb4651461095357600080fd5b806384114ad41461087757806386e2947b1461088a57806389028a131461089d5780638e204fb4146108b05780638e4fd6a9146108dc57600080fd5b80633a15ff0711610373578063540528b9116102f05780636dea40b3116102b45780636dea40b31461080557806370a082311461081857806377349a5f1461082b5780637a375716146108515780637ef67f991461086457600080fd5b8063540528b91461075757806356de96db1461078057806357ff49f6146107935780635ca3eebf146107ca5780636352211e146107f257600080fd5b806342966c681161033757806342966c68146106d45780634f558e79146106e75780634f6ccce7146106fa57806350ddf35c1461070d57806352aaef551461072057600080fd5b80633a15ff07146106685780633b28b89f146106885780633b5081321461069b5780634187e4c5146106ae57806342842e0e146106c157600080fd5b806320fa728a1161040157806331dcebe3116103c557806331dcebe3146105e957806331fff07c146105fc5780633502ac4b1461061c57806335da339414610642578063374c94731461065557600080fd5b806320fa728a1461058c57806323b872dd1461059f578063289b3c0d146105b25780632f745c59146105c35780632faeed81146105d657600080fd5b8063095ea7b311610448578063095ea7b31461051557806318160ddd146105285780631865c57d1461053a5780631cbb26201461054d578063209055061461057957600080fd5b806301ffc9a714610485578063054871b8146104ad57806306fdde03146104c2578063077f224a146104d7578063081812fc146104ea575b600080fd5b6104986104933660046148d4565b610c9a565b60405190151581526020015b60405180910390f35b6104c06104bb366004614932565b610cc5565b005b6104ca610ce6565b6040516104a491906149d5565b6104c06104e53660046149ff565b610d78565b6104fd6104f8366004614a7f565b610e12565b6040516001600160a01b0390911681526020016104a4565b6104c0610523366004614a98565b610eac565b6008545b6040519081526020016104a4565b600c5460ff166040516104a49190614ad8565b61049861055b366004614af2565b6001600160a01b03166000908152600e602052604090205460ff1690565b6104c0610587366004614b1d565b610fbd565b61052c61059a366004614b50565b611028565b6104c06105ad366004614b91565b61105a565b6017546001600160a01b03166104fd565b61052c6105d1366004614a98565b61108b565b61052c6105e4366004614be5565b611121565b6104c06105f7366004614b1d565b61114b565b61060f61060a366004614c19565b6111ae565b6040516104a49190614c3b565b7f00000000000000000000000000000000000000000000000000000000000000006104fd565b6104c0610650366004614af2565b611237565b6104ca610663366004614a7f565b6112a4565b61052c610676366004614a7f565b60009081526013602052604090205490565b6104c0610696366004614c61565b611349565b61052c6106a9366004614ca8565b6114e5565b6104c06106bc366004614b1d565b61172d565b6104c06106cf366004614b91565b611790565b6104c06106e2366004614a7f565b6117ab565b6104986106f5366004614a7f565b6117c8565b61052c610708366004614a7f565b6117e7565b61052c61071b366004614a7f565b61187a565b6104fd61072e366004614c19565b60009182526014602090815260408084209284529190529020600501546001600160a01b031690565b6104fd610765366004614a7f565b6000908152601160205260409020546001600160a01b031690565b6104c061078e366004614cdc565b611910565b6104fd6107a1366004614c19565b60009182526014602090815260408084209284529190529020600401546001600160a01b031690565b6107dd6107d8366004614c19565b611997565b604080519283526020830191909152016104a4565b6104fd610800366004614a7f565b6119c0565b6104c0610813366004614cfd565b611a37565b61052c610826366004614af2565b611ace565b7f00000000000000000000000000000000000000000000000000000000000000006104fd565b61052c61085f366004614d56565b611b55565b6104c0610872366004614da3565b611ea1565b61052c610885366004614de0565b611f70565b6104c0610898366004614e1a565b61202d565b6104c06108ab366004614e5e565b6120cb565b6104986108be366004614af2565b6001600160a01b031660009081526010602052604090205460ff1690565b6108ef6108ea366004614c61565b612190565b6040516104a49190614eb3565b61052c61090a366004614af2565b6001600160a01b031660009081526015602052604090205490565b6104ca612416565b61052c61093b366004614be5565b612425565b6104c061094e366004614be5565b6124ef565b6104c0610961366004614b1d565b6125cb565b6104c0610974366004614b1d565b61262f565b6104fd610987366004614a7f565b6000908152601360205260409020600201546001600160a01b031690565b6104c06109b3366004614af2565b612692565b6104986109c6366004614af2565b6001600160a01b03166000908152600f602052604090205460ff1690565b6104986109f2366004614af2565b6001600160a01b03166000908152600d602052604090205460ff1690565b61052c610a1e366004614ef7565b6126a3565b6104ca610a31366004614c19565b61284a565b61052c610a44366004614f32565b612912565b6104fd610a57366004614c19565b60009182526014602090815260408084209284529190529020600301546001600160a01b031690565b6104c0610a8e36600461507b565b612937565b6104c0610aa1366004614be5565b612969565b6104c0610ab43660046150e2565b6129cc565b6104c0610ac736600461511d565b612a5b565b6104c0610ada366004615139565b612b1a565b610af2610aed366004614a7f565b612b35565b6040805182516001600160a01b031681526020928301516001600160601b031692810192909252016104a4565b6104c0610b2d366004614932565b612c03565b610b45610b40366004614c19565b612c1f565b6040516104a4919061515c565b6104ca610b60366004614a7f565b612d7e565b6104fd610b73366004614a7f565b6000908152601360205260409020600101546001600160a01b031690565b6104c0610b9f36600461511d565b612eb0565b6104c0610bb23660046151c6565b612f93565b61052c610bc5366004614ca8565b612fae565b610498610bd83660046151ea565b6001600160a01b03918216600090815260056020908152604080832093909416825291909152205460ff1690565b6104ca610c14366004614a7f565b6131a5565b61052c6131c5565b610c34610c2f366004614a7f565b6131d4565b6040516104a49190615214565b6104c0610c4f366004614a7f565b613428565b61052c610c62366004614af2565b600a6020526000908152604090205481565b6108ef610c823660046152e5565b61343a565b61052c610c95366004614be5565b6134ce565b60006001600160e01b0319821663780e9d6360e01b1480610cbf5750610cbf82613572565b92915050565b610ccd6135c2565b610cd6836135fc565b610ce183838361365b565b505050565b606060008054610cf590615344565b80601f0160208091040260200160405190810160405280929190818152602001828054610d2190615344565b8015610d6e5780601f10610d4357610100808354040283529160200191610d6e565b820191906000526020600020905b815481529060010190602001808311610d5157829003601f168201915b5050505050905090565b60017f00000000000000000000000000000000000000000000000000000000000000006001600160a01b0316301415610dc4576040516325c7410560e21b815260040160405180910390fd5b600b548111610de6576040516302ed543d60e51b815260040160405180910390fd5b600b819055610df7868686866136dc565b610e01600261372d565b610e0a826137ab565b505050505050565b6000818152600260205260408120546001600160a01b0316610e905760405162461bcd60e51b815260206004820152602c60248201527f4552433732313a20617070726f76656420717565727920666f72206e6f6e657860448201526b34b9ba32b73a103a37b5b2b760a11b60648201526084015b60405180910390fd5b506000908152600460205260409020546001600160a01b031690565b6000610eb7826119c0565b9050806001600160a01b0316836001600160a01b03161415610f255760405162461bcd60e51b815260206004820152602160248201527f4552433732313a20617070726f76616c20746f2063757272656e74206f776e656044820152603960f91b6064820152608401610e87565b336001600160a01b0382161480610f415750610f418133610bd8565b610fb35760405162461bcd60e51b815260206004820152603860248201527f4552433732313a20617070726f76652063616c6c6572206973206e6f74206f7760448201527f6e6572206e6f7220617070726f76656420666f7220616c6c00000000000000006064820152608401610e87565b610ce18383613804565b610fc5613872565b6001600160a01b0382166000818152600d6020908152604091829020805460ff191685151590811790915591514281529192917f8f617843889b94892bd44852d36ca6a7f49ecf4350a01e7b68e22d80f4ed95bc91015b60405180910390a35050565b600080838360405161103b929190615379565b6040805191829003909120600090815260126020522054949350505050565b611064338261389d565b6110805760405162461bcd60e51b8152600401610e8790615389565b610ce1838383613990565b600061109683611ace565b82106110f85760405162461bcd60e51b815260206004820152602b60248201527f455243373231456e756d657261626c653a206f776e657220696e646578206f7560448201526a74206f6620626f756e647360a81b6064820152608401610e87565b506001600160a01b03919091166000908152600660209081526040808320938352929052205490565b600061112b613b3b565b61113582356135fc565b610cbf611141836153da565b613b72565b919050565b611153613872565b6001600160a01b0382166000818152600f6020908152604091829020805460ff191685151590811790915591514281529192917f6cc19a794d6a439023150cd58748eed4353190c0bb060d2e6250e2df4a68b673910161101c565b60008115806111ca575060008381526013602052604090205482115b156111d757506003610cbf565b60008381526014602090815260408083208584529091529020600401546001600160a01b031661120957506002610cbf565b600083815260146020908152604080832085845290915290205461122f57506000610cbf565b506001610cbf565b61123f613872565b601880546001600160a01b038381166001600160a01b03198316811790935560405191169190829033907f676c0801b0f400762e958ee31cfbb10870e70786f6761f57c8647e766b0db3d9906112989042815260200190565b60405180910390a45050565b60008181526013602052604090206005018054606091906112c490615344565b80601f01602080910402602001604051908101604052809291908181526020018280546112f090615344565b801561133d5780601f106113125761010080835404028352916020019161133d565b820191906000526020600020905b81548152906001019060200180831161132057829003601f168201915b50505050509050919050565b6113516135c2565b600061135d82356119c0565b905061144761143d7f61332f0343256b019dca2e0ffc75766fde55292d645df285bb1a3b74a493b51084356113986040870160208801614af2565b6113a56040880188615475565b6040516113b3929190615379565b604080519182900382206001600160a01b0389166000908152600a6020908152929020805460018101909155611422969594939192909160c08c0135910195865260208601949094526001600160a01b039290921660408501526060840152608083015260a082015260c00190565b60405160208183030381529060405280519060200120613bca565b8284606001613c14565b73__$1f7cbacb1f9f5d323b85b0487838426c8d$__636a7ecf1383356114736040860160208701614af2565b6114806040870187615475565b87356000908152601360205260409081902090516001600160e01b031960e088901b1681526114b9959493929190600e906004016154e4565b60006040518083038186803b1580156114d157600080fd5b505af4158015610e0a573d6000803e3d6000fd5b60006114ef613b3b565b60006114fb83356119c0565b905061163661162c7ffb2be94758c5f2515e99eae2d54860ea468ce314ffb38e328c234793acbcccf485356115336020880188615475565b604051611541929190615379565b604051809103902087604001602081019061155c9190614af2565b61156960608a018a615475565b604051611577929190615379565b60405190819003902061159060a08b0160808c01614af2565b61159d60a08c018c615475565b6040516115ab929190615379565b604080519182900382206001600160a01b03808d166000908152600a6020908152908490208054600181019091559085019a909a52918301979097526060820195909552928416608084015260a083019190915290911660c082015260e0810191909152610100810191909152610120808701359082015261014001611422565b828560c001613c14565b61172683356116486020860186615475565b8080601f01602080910402602001604051908101604052809392919081815260200183838082843760009201919091525061168d925050506060870160408801614af2565b61169a6060880188615475565b8080601f0160208091040260200160405190810160405280939291908181526020018383808284376000920191909152506116df9250505060a0890160808a01614af2565b6116ec60a08a018a615475565b8080601f016020809104026020016040519081016040528093929190818152602001838380828437600092019190915250613cf292505050565b9392505050565b611735613872565b6001600160a01b038216600081815260106020908152604091829020805460ff191685151590811790915591514281529192917f37872a053ef20cb52defb7c9ec20e1a87cb8dd5098ac9e76a144be263dfef572910161101c565b610ce183838360405180602001604052806000815250612937565b6117b36135c2565b6117bc81613d91565b6117c581613dc1565b50565b6000818152600260205260408120546001600160a01b03161515610cbf565b60006117f260085490565b82106118555760405162461bcd60e51b815260206004820152602c60248201527f455243373231456e756d657261626c653a20676c6f62616c20696e646578206f60448201526b7574206f6620626f756e647360a01b6064820152608401610e87565b6008828154811061186857611868615524565b90600052602060002001549050919050565b600081815260026020526040812054600160a01b90046001600160601b0316806119015760405162461bcd60e51b815260206004820152603260248201527f4552433732313a206d696e742074696d657374616d7020717565727920666f72604482015271103737b732bc34b9ba32b73a103a37b5b2b760711b6064820152608401610e87565b6001600160601b031692915050565b6018546001600160a01b031633141561196357600081600281111561193757611937614ac2565b141561195657604051630357a1ab60e31b815260040160405180910390fd5b61195e6135c2565b61198e565b6017546001600160a01b0316331461198e57604051635010559960e11b815260040160405180910390fd5b6117c58161372d565b6000828152601460209081526040808320848452909152902080546001909101545b9250929050565b6000818152600260205260408120546001600160a01b031680610cbf5760405162461bcd60e51b815260206004820152602960248201527f4552433732313a206f776e657220717565727920666f72206e6f6e657869737460448201526832b73a103a37b5b2b760b91b6064820152608401610e87565b611a3f6135c2565b611a4884613dfc565b600084815260136020526040908190209051636a7ecf1360e01b815273__$1f7cbacb1f9f5d323b85b0487838426c8d$__91636a7ecf1391611a9891889188918891889190600e906004016154e4565b60006040518083038186803b158015611ab057600080fd5b505af4158015611ac4573d6000803e3d6000fd5b5050505050505050565b60006001600160a01b038216611b395760405162461bcd60e51b815260206004820152602a60248201527f4552433732313a2062616c616e636520717565727920666f7220746865207a65604482015269726f206164647265737360b01b6064820152608401610e87565b506001600160a01b031660009081526003602052604090205490565b6000611b5f613b3b565b6000611b6b83356119c0565b9050611d14611d097f35b861ea91c543d61c3f094b5effa29dfcd22a439290ae248fdccbc7162016918535611ba36020880188615475565b604051611bb1929190615379565b604051809103902087604001358860600135898060800190611bd39190615475565b604051611be1929190615379565b604051908190039020611bfa60c08c0160a08d01614af2565b611c0760c08d018d615475565b604051611c15929190615379565b604051908190039020611c2f6101008e0160e08f01614af2565b611c3d6101008f018f615475565b604051611c4b929190615379565b6040518091039020600a60008e6001600160a01b03166001600160a01b031681526020019081526020016000206000815480929190600101919050558f61012001606001356040516020016114229c9b9a999897969594939291909b8c5260208c019a909a5260408b019890985260608a0196909652608089019490945260a08801929092526001600160a01b0390811660c088015260e0870191909152166101008501526101208401526101408301526101608201526101800190565b828561012001613c14565b61172660405180610120016040528085600001358152602001858060200190611d3d9190615475565b8080601f01602080910402602001604051908101604052809392919081815260200183838082843760009201919091525050509082525060408087013560208301526060808801359183019190915201611d9a6080870187615475565b8080601f016020809104026020016040519081016040528093929190818152602001838380828437600092019190915250505090825250602001611de460c0870160a08801614af2565b6001600160a01b03168152602001611dff60c0870187615475565b8080601f016020809104026020016040519081016040528093929190818152602001838380828437600092019190915250505090825250602001611e4a610100870160e08801614af2565b6001600160a01b03168152602001611e66610100870187615475565b8080601f0160208091040260200160405190810160405280939291908181526020018383808284376000920191909152505050915250613e36565b6001600160a01b038316611ec8576040516307eb16dd60e21b815260040160405180910390fd5b6000611ed3836119c0565b6001600160a01b038181166000908152600a602090815260409182902080546001810190915582517f49ecf333e5b8c95c40fdafc95c1ad136e8914a8fb55e9dc8bb01eaa83a2df9ad9281019290925292881691810191909152606080820187905260808201929092529084013560a0820152909150611f6090611f599060c001611422565b8284613c14565b611f6a8484613804565b50505050565b6000611f7a6135c2565b60405163334ce6f160e21b815273__$1e68a60ae0444699fe08192a29ecc09930$__9063cd339bc490611fe190339089908990899089907f00000000000000000000000000000000000000000000000000000000000000009060149060139060040161553a565b602060405180830381865af4158015611ffe573d6000803e3d6000fd5b505050506040513d601f19601f820116820180604052508101906120229190615588565b90505b949350505050565b60008581526014602090815260408083208784529091529020600501546001600160a01b03163381146120735760405163c6d1651b60e01b815260040160405180910390fd5b604080516001600160a01b03858116825284166020820152428183015290518591879189917f68edb7ec2c37d21b3b72233960b487f2966f4ac82b7430d39f24d1f8d6f99106919081900360600190a4505050505050565b6001600160a01b0383166120f2576040516307eb16dd60e21b815260040160405180910390fd5b6001600160a01b038481166000818152600a602090815260409182902080546001810190915582517f47ab88482c90e4bb94b82a947ae78fa91fb25de1469ab491f4c15b9a0a2677ee9281019290925291810192909252918516606080830191909152841515608083015260a08201929092529082013560c08201526121859061217e9060e001611422565b8583613c14565b611f6a848484613e95565b606061219a6135c2565b60006121a960408401846155a1565b905090506000816001600160401b038111156121c7576121c7614f6d565b6040519080825280602002602001820160405280156121f0578160200160208202803683370190505b50905060005b828110156122685761220b60408601866155a1565b8281811061221b5761221b615524565b905060200281019061222d9190615475565b60405161223b929190615379565b604051809103902082828151811061225557612255615524565b60209081029190910101526001016121f6565b5061236a6123547ffb6b7f1cd1b38daf3822aff0abbe78124db5d62a4748bcff007c15ccd6d30bc561229d60208801886155a1565b6040516020016122ae9291906155ea565b60405160208183030381529060405280519060200120846040516020016122d59190615616565b60405160208183030381529060405280519060200120600a60008a60000160208101906123029190614af2565b6001600160a01b0316815260208082019290925260409081016000208054600181019091558151928301959095528101929092526060820152608081019190915260c08781013560a083015201611422565b6123616020870187614af2565b86606001613c14565b73__$1e68a60ae0444699fe08192a29ecc09930$__636fb4b4636123916020870187614af2565b61239e60208801886155a1565b6123ab60408a018a6155a1565b601360126040518863ffffffff1660e01b81526004016123d19796959493929190615691565b600060405180830381865af41580156123ee573d6000803e3d6000fd5b505050506040513d6000823e601f3d908101601f19168201604052612025919081019061574b565b606060018054610cf590615344565b600061242f613b3b565b61243982356135fc565b610cbf823561244b6020850185615475565b8080601f016020809104026020016040519081016040528093929190818152602001838380828437600092019190915250612490925050506060860160408701614af2565b61249d6060870187615475565b8080601f0160208091040260200160405190810160405280939291908181526020018383808284376000920191909152506124e29250505060a0880160808901614af2565b6116ec60a0890189615475565b6124f76135c2565b600061250382356119c0565b90506125b06125a67f5b9860bd835e648945b22d053515bc1f53b7d9fab4b23b1b49db15722e945d14843561253b6020870187615475565b604051612549929190615379565b604080519182900382206001600160a01b0388166000908152600a60209081529083902080546001810190915590840195909552908201929092526060810191909152608081019190915260a0858101359082015260c001611422565b8284604001613c14565b6125c782356125c26020850185615475565b61365b565b5050565b6001600160a01b0382163314156126245760405162461bcd60e51b815260206004820152601960248201527f4552433732313a20617070726f766520746f2063616c6c6572000000000000006044820152606401610e87565b6125c7338383613e95565b612637613872565b6001600160a01b0382166000818152600e6020908152604091829020805460ff191685151590811790915591514281529192917f52c5b7889df9f12f84ec3da051e854e5876678370d8357959c23ef59dd6486df910161101c565b61269a613872565b6117c5816137ab565b60006126ad6135c2565b61278361276d7f7f9b4ea1fc678b4fda1611ac5cbd28f339e235d89b1540635e9b2e0223a3c101602085013560408601356126eb6060880188615475565b6040516126f9929190615379565b604051908190039020600a600061271360208b018b614af2565b6001600160a01b0316815260208082019290925260409081016000208054600181019091558151928301969096528101939093526060830191909152608082015260a081019190915260e08581013560c083015201611422565b61277a6020850185614af2565b84608001613c14565b73__$1e68a60ae0444699fe08192a29ecc09930$__63cd339bc46127aa6020850185614af2565b602085013560408601356127c16060880188615475565b7f0000000000000000000000000000000000000000000000000000000000000000601460136040518963ffffffff1660e01b815260040161280998979695949392919061553a565b602060405180830381865af4158015612826573d6000803e3d6000fd5b505050506040513d601f19601f82011682018060405250810190610cbf9190615588565b606060008061285b85856014613f02565b506000828152601460209081526040808320848452909152902060020180549294509092509061288a90615344565b80601f01602080910402602001604051908101604052809291908181526020018280546128b690615344565b80156129035780601f106128d857610100808354040283529160200191612903565b820191906000526020600020905b8154815290600101906020018083116128e657829003601f168201915b50505050509250505092915050565b600061291c613b3b565b61292682356135fc565b610cbf612932836157f0565b613e36565b612941338361389d565b61295d5760405162461bcd60e51b8152600401610e8790615389565b611f6a84848484613fc4565b6129716135c2565b600061297d82356119c0565b90506129b56125a67fd8d76e8b2b26e1ebe72def13fb559a68561ef064055b0de01f955bc26e25d42f843561253b6020870187615475565b6125c782356129c76020850185615475565b613ff7565b6000848152601360205260409020600201546001600160a01b0316338114612a075760405163646785d560e11b815260040160405180910390fd5b604080516001600160a01b0385811682528416602082015242818301529051859187917f4996ad2257e7db44908136c43128cc10ca988096f67dc6bb0bcee11d151368fb9181900360600190a35050505050565b612a636135c2565b6000612a6f82356119c0565b9050612b006125a67f77ba3e9f5fa75343bbad1241fb539a0064de97694b47d463d1eb5c54aba11f0f8435612aaa6040870160208801614af2565b6001600160a01b038681166000908152600a602090815260409182902080546001810190915582519182019690965290810193909352166060820152608081019190915260a0858101359082015260c001611422565b6125c78235612b156040850160208601614af2565b614048565b612b226135c2565b612b2b82613dfc565b6125c78282614048565b60408051808201909152600080825260208201526000828152600260205260409020546001600160a01b0316612bc45760405162461bcd60e51b815260206004820152602e60248201527f4552433732313a20746f6b656e206461746120717565727920666f72206e6f6e60448201526d32bc34b9ba32b73a103a37b5b2b760911b6064820152608401610e87565b506000908152600260209081526040918290208251808401909352546001600160a01b0381168352600160a01b90046001600160601b03169082015290565b612c0b6135c2565b612c14836135fc565b610ce1838383613ff7565b612c736040518060c0016040528060008152602001600081526020016060815260200160006001600160a01b0316815260200160006001600160a01b0316815260200160006001600160a01b031681525090565b6014600084815260200190815260200160002060008381526020019081526020016000206040518060c00160405290816000820154815260200160018201548152602001600282018054612cc690615344565b80601f0160208091040260200160405190810160405280929190818152602001828054612cf290615344565b8015612d3f5780601f10612d1457610100808354040283529160200191612d3f565b820191906000526020600020905b815481529060010190602001808311612d2257829003601f168201915b505050918352505060038201546001600160a01b0390811660208301526004830154811660408301526005909201549091166060909101529392505050565b6000818152601360205260409020600201546060906001600160a01b031673__$f906f20d797116ee89ed79945048c6ad36$__633edea73c848315612e2457836001600160a01b03166318160ddd6040518163ffffffff1660e01b8152600401602060405180830381865afa158015612dfb573d6000803e3d6000fd5b505050506040513d601f19601f82011682018060405250810190612e1f9190615588565b612e27565b60005b612e30876119c0565b6000888152601360205260409081902090516001600160e01b031960e087901b168152612e6b94939291600381019160049182019101615963565b600060405180830381865af4158015612e88573d6000803e3d6000fd5b505050506040513d6000823e601f3d908101601f1916820160405261172691908101906159a2565b612eb86135c2565b612f79612f637e198a25e19615d82f53977db0fc1ee7f3701b0fdf1299a971cf997545879c04612eeb6020850185614af2565b60208501803590600a90600090612f029089614af2565b6001600160a01b03168152602080820192909252604090810160002080546001810190915590516114229594939260a08a013591019485526001600160a01b0393909316602085015260408401919091526060830152608082015260a00190565b612f706020840184614af2565b83604001613c14565b6117c5612f896020830183614af2565b82602001356140a5565b612f9b6135c2565b612fa5828261413d565b6125c782613dc1565b6000612fb8613b3b565b6000612fc483356119c0565b90506130c961162c7f4178441487eb967c15821c9ffee94853812f263a69ccb6352bdaac59f77e486f85356020870135604088013561300660608a018a615475565b604051613014929190615379565b60405190819003902061302d60a08b0160808c01614af2565b61303a60a08c018c615475565b604051613048929190615379565b604080519182900382206001600160a01b03808d166000908152600a6020908152908490208054600181019091559085019a909a52918301979097526060820195909552608081019390935260a083019190915290911660c082015260e0810191909152610100810191909152610120808701359082015261014001611422565b6117266040518060c001604052808560000135815260200185602001358152602001856040013581526020018580606001906131059190615475565b8080601f01602080910402602001604051908101604052809392919081815260200183838082843760009201919091525050509082525060200161314f60a0870160808801614af2565b6001600160a01b0316815260200161316a60a0870187615475565b8080601f0160208091040260200160405190810160405280939291908181526020018383808284376000920191909152505050915250613b72565b60008181526013602052604090206003018054606091906112c490615344565b60006131cf6141cb565b905090565b61321f6040518060c001604052806000815260200160006001600160a01b0316815260200160006001600160a01b031681526020016060815260200160608152602001606081525090565b600082815260136020908152604091829020825160c0810184528154815260018201546001600160a01b039081169382019390935260028201549092169282019290925260038201805491929160608401919061327b90615344565b80601f01602080910402602001604051908101604052809291908181526020018280546132a790615344565b80156132f45780601f106132c9576101008083540402835291602001916132f4565b820191906000526020600020905b8154815290600101906020018083116132d757829003601f168201915b5050505050815260200160048201805461330d90615344565b80601f016020809104026020016040519081016040528092919081815260200182805461333990615344565b80156133865780601f1061335b57610100808354040283529160200191613386565b820191906000526020600020905b81548152906001019060200180831161336957829003601f168201915b5050505050815260200160058201805461339f90615344565b80601f01602080910402602001604051908101604052809291908181526020018280546133cb90615344565b80156134185780601f106133ed57610100808354040283529160200191613418565b820191906000526020600020905b8154815290600101906020018083116133fb57829003601f168201915b5050505050815250509050919050565b6134306135c2565b6117c533826140a5565b60606134446135c2565b604051636fb4b46360e01b815273__$1e68a60ae0444699fe08192a29ecc09930$__90636fb4b463906134899033908990899089908990601390601290600401615691565b600060405180830381865af41580156134a6573d6000803e3d6000fd5b505050506040513d6000823e601f3d908101601f19168201604052612022919081019061574b565b60006134d86135c2565b60168054600101908190556134f96134f36020850185614af2565b82614260565b604051633f67a66f60e11b815273__$1f7cbacb1f9f5d323b85b0487838426c8d$__90637ecf4cde9061353b9086908590601290601390600e90600401615a0f565b60006040518083038186803b15801561355357600080fd5b505af4158015613567573d6000803e3d6000fd5b509295945050505050565b60006001600160e01b031982166380ac58cd60e01b14806135a357506001600160e01b03198216635b5e139f60e01b145b80610cbf57506301ffc9a760e01b6001600160e01b0319831614610cbf565b6002600c5460ff1660028111156135db576135db614ac2565b14156135fa576040516313d0ff5960e31b815260040160405180910390fd5b565b613605816119c0565b6001600160a01b0316336001600160a01b0316148061363a57506000818152601160205260409020546001600160a01b031633145b156136425750565b60405163f33ac98f60e01b815260040160405180910390fd5b61177081111561367e5760405163781548c760e01b815260040160405180910390fd5b600083815260136020526040902061369a906004018383614825565b50827fd5a5879cad33c830cc1432c1850107029a09c80c60e9bce1ecd08d24880bd46c8383426040516136cf93929190615b06565b60405180910390a2505050565b6136e8848484846143b1565b7f414cd0b34676984f09a5f76ce9718d4062e50283abe0e7e274a9a5b4e0c99c30848484844260405161371f959493929190615b2a565b60405180910390a150505050565b600c805460ff811691839160ff1916600183600281111561375057613750614ac2565b021790555081600281111561376757613767614ac2565b81600281111561377957613779614ac2565b60405142815233907fa2f9a1499fc1f9b7796d21fe5761290ccb7e0ef6ccf35fa58b668f304a62a1ca90602001611298565b601780546001600160a01b038381166001600160a01b03198316811790935560405191169190829033907fe552a55455b740845a5c07ed445d1724142fc997b389835495a29b30cddc1ccd906112989042815260200190565b600081815260046020526040902080546001600160a01b0319166001600160a01b0384169081179091558190613839826119c0565b6001600160a01b03167f8c5be1e5ebec7d5bd14f71427d1e84f3dd0314c0f7b2291e5b200ac8c7c3b92560405160405180910390a45050565b6017546001600160a01b031633146135fa57604051632d5be4cb60e21b815260040160405180910390fd5b6000818152600260205260408120546001600160a01b03166139165760405162461bcd60e51b815260206004820152602c60248201527f4552433732313a206f70657261746f7220717565727920666f72206e6f6e657860448201526b34b9ba32b73a103a37b5b2b760a11b6064820152608401610e87565b6000613921836119c0565b9050806001600160a01b0316846001600160a01b0316148061395c5750836001600160a01b031661395184610e12565b6001600160a01b0316145b8061202557506001600160a01b0380821660009081526005602090815260408083209388168352929052205460ff16612025565b826001600160a01b03166139a3826119c0565b6001600160a01b031614613a0b5760405162461bcd60e51b815260206004820152602960248201527f4552433732313a207472616e73666572206f6620746f6b656e2074686174206960448201526839903737ba1037bbb760b91b6064820152608401610e87565b6001600160a01b038216613a6d5760405162461bcd60e51b8152602060048201526024808201527f4552433732313a207472616e7366657220746f20746865207a65726f206164646044820152637265737360e01b6064820152608401610e87565b613a788383836143d1565b613a83600082613804565b6001600160a01b0383166000908152600360205260408120805460019290613aac908490615b7a565b90915550506001600160a01b0382166000908152600360205260408120805460019290613ada908490615b91565b909155505060008181526002602052604080822080546001600160a01b0319166001600160a01b0386811691821790925591518493918716917fddf252ad1be2c89b69c2b068fc378daa952ba7f163c4a11628f55a4df523b3ef91a4505050565b6000600c5460ff166002811115613b5457613b54614ac2565b146135fa57604051630f392a3b60e31b815260040160405180910390fd5b8051600090815260136020526040808220805460010190819055905163764e3e9360e01b815273__$1f7cbacb1f9f5d323b85b0487838426c8d$__9063764e3e939061353b9086908590601490601090600401615ba9565b600080613bd56141cb565b60405161190160f01b602082015260228101919091526042810184905260620160408051601f1981840301815291905280516020909101209392505050565b4281606001351015613c3957604051630819bdcd60e01b815260040160405180910390fd5b6000600184613c4b6020850185615c35565b604080516000815260208181018084529490945260ff9092168282015291850135606082015290840135608082015260a0016020604051602081039080840390855afa158015613c9f573d6000803e3d6000fd5b5050604051601f1901519150506001600160a01b0381161580613cd45750826001600160a01b0316816001600160a01b031614155b15611f6a576040516337e8456b60e01b815260040160405180910390fd5b60008681526013602052604080822080546001019081905590516309dbf05160e41b815273__$1f7cbacb1f9f5d323b85b0487838426c8d$__90639dbf051090613d55908b908b908b908b908b908b908a90601490600f90601090600401615c58565b60006040518083038186803b158015613d6d57600080fd5b505af4158015613d81573d6000803e3d6000fd5b50929a9950505050505050505050565b613d9b338261389d565b613db857604051636d8a29e760e11b815260040160405180910390fd5b6117c581614446565b6000818152601360205260408082209051613ddf9160030190615cdf565b604080519182900390912060009081526012602052908120555050565b613e05816119c0565b6001600160a01b0316336001600160a01b0316146117c55760405163f194fae560e01b815260040160405180910390fd5b80516000908152601360208190526040808320805460010190819055905163731d549f60e11b8152909173__$1f7cbacb1f9f5d323b85b0487838426c8d$__9163e63aa93e9161353b9187918691601490600f90601090600401615d4d565b6001600160a01b03838116600081815260056020908152604080832094871680845294825291829020805460ff191686151590811790915591519182527f17307eab39ab6107e8899845ad3d59bd9653f200f220920489ca2b5937696c31910160405180910390a3505050565b600083815260208281526040808320858452909152812060040154819081906001600160a01b03168015613f3d578693508592509050613fbb565b60008781526020868152604080832089845290915290205480613f735760405163a43d2a7160e01b815260040160405180910390fd5b6000888152602087815260408083208a84528252808320600101548484528983528184208185529092529091206004015491955093506001600160a01b03169150613fbb9050565b93509350939050565b613fcf848484613990565b613fdb848484846144e2565b611f6a5760405162461bcd60e51b8152600401610e8790615e4f565b6000838152601360205260409020614013906005018383614825565b50827fe82886e1af6fcab5caef13815b22f51384e970c367a785f265d13860a7d6966d8383426040516136cf93929190615b06565b60008281526011602090815260409182902080546001600160a01b0319166001600160a01b038516908117909155915142815284917f22baaec4952f35f59e45bd2ddb287e1ccc6d319375770c09428eb8f8d604e065910161101c565b6000811180156140cf57506140b9816119c0565b6001600160a01b0316826001600160a01b031614155b156140ed5760405163f194fae560e01b815260040160405180910390fd5b6001600160a01b03821660008181526015602052604090819020839055518291907f0afd7c479e8bc7dcdb856b3cc27d2332dfe1f018fde574ea124919ddcae8a9339061101c9042815260200190565b6000614148836119c0565b6001600160a01b0381166000908152600a602090815260409182902080546001810190915582517f108ccda6d7331b00561a3eea66a2ae331622356585681c62731e4a01aae2261a928101929092529181018690526060808201929092529084013560808201529091506141c290611f599060a001611422565b610ce183614446565b60007f8b73c3c69bb8fe3d512ecc4cf759cc79239f7b179b0ffacaa9a75d522b39400f6141f6610ce6565b80516020918201206040805192830193909352918101919091527fc89efdaa54c0f20c7adf612882df0950f5a951637e0307cdcb4c672f298b8bc660608201524660808201523060a082015260c00160405160208183030381529060405280519060200120905090565b6001600160a01b0382166142b65760405162461bcd60e51b815260206004820181905260248201527f4552433732313a206d696e7420746f20746865207a65726f20616464726573736044820152606401610e87565b6000818152600260205260409020546001600160a01b03161561431b5760405162461bcd60e51b815260206004820152601c60248201527f4552433732313a20746f6b656e20616c7265616479206d696e746564000000006044820152606401610e87565b614327600083836143d1565b6001600160a01b0382166000908152600360205260408120805460019290614350908490615b91565b90915550506000818152600260205260408082206001600160a01b038516600160a01b426001600160601b031602811790915590518392907fddf252ad1be2c89b69c2b068fc378daa952ba7f163c4a11628f55a4df523b3ef908290a45050565b6143bd60008585614825565b506143ca60018383614825565b5050505050565b6143d96135c2565b6000818152601160205260409020546001600160a01b03161561440157614401816000614048565b6001600160a01b03831660009081526015602052604090205481141561443b576001600160a01b0383166000908152601560205260408120555b610ce18383836145dd565b6000614451826119c0565b905061445f816000846143d1565b61446a600083613804565b6001600160a01b0381166000908152600360205260408120805460019290614493908490615b7a565b9091555050600082815260026020526040808220829055518391906001600160a01b038416907fddf252ad1be2c89b69c2b068fc378daa952ba7f163c4a11628f55a4df523b3ef908390a45050565b60006001600160a01b0384163b156145d557604051630a85bd0160e11b81526001600160a01b0385169063150b7a0290614526903390899088908890600401615ea1565b6020604051808303816000875af1925050508015614561575060408051601f3d908101601f1916820190925261455e91810190615ede565b60015b6145bb573d80801561458f576040519150601f19603f3d011682016040523d82523d6000602084013e614594565b606091505b5080516145b35760405162461bcd60e51b8152600401610e8790615e4f565b805181602001fd5b6001600160e01b031916630a85bd0160e11b149050612025565b506001612025565b6001600160a01b0383166146385761463381600880546000838152600960205260408120829055600182018355919091527ff3f7a9fe364faab93b216da50a3214154f22a0a2b415b23a84c8169e8b636ee30155565b61465b565b816001600160a01b0316836001600160a01b03161461465b5761465b8382614695565b6001600160a01b03821661467257610ce181614732565b826001600160a01b0316826001600160a01b031614610ce157610ce182826147e1565b600060016146a284611ace565b6146ac9190615b7a565b6000838152600760205260409020549091508082146146ff576001600160a01b03841660009081526006602090815260408083208584528252808320548484528184208190558352600790915290208190555b5060009182526007602090815260408084208490556001600160a01b039094168352600681528383209183525290812055565b60085460009061474490600190615b7a565b6000838152600960205260408120546008805493945090928490811061476c5761476c615524565b90600052602060002001549050806008838154811061478d5761478d615524565b60009182526020808320909101929092558281526009909152604080822084905585825281205560088054806147c5576147c5615efb565b6001900381819060005260206000200160009055905550505050565b60006147ec83611ace565b6001600160a01b039093166000908152600660209081526040808320868452825280832085905593825260079052919091209190915550565b82805461483190615344565b90600052602060002090601f0160209004810192826148535760008555614899565b82601f1061486c5782800160ff19823516178555614899565b82800160010185558215614899579182015b8281111561489957823582559160200191906001019061487e565b506148a59291506148a9565b5090565b5b808211156148a557600081556001016148aa565b6001600160e01b0319811681146117c557600080fd5b6000602082840312156148e657600080fd5b8135611726816148be565b60008083601f84011261490357600080fd5b5081356001600160401b0381111561491a57600080fd5b6020830191508360208285010111156119b957600080fd5b60008060006040848603121561494757600080fd5b8335925060208401356001600160401b0381111561496457600080fd5b614970868287016148f1565b9497909650939450505050565b60005b83811015614998578181015183820152602001614980565b83811115611f6a5750506000910152565b600081518084526149c181602086016020860161497d565b601f01601f19169290920160200192915050565b60208152600061172660208301846149a9565b80356001600160a01b038116811461114657600080fd5b600080600080600060608688031215614a1757600080fd5b85356001600160401b0380821115614a2e57600080fd5b614a3a89838a016148f1565b90975095506020880135915080821115614a5357600080fd5b50614a60888289016148f1565b9094509250614a739050604087016149e8565b90509295509295909350565b600060208284031215614a9157600080fd5b5035919050565b60008060408385031215614aab57600080fd5b614ab4836149e8565b946020939093013593505050565b634e487b7160e01b600052602160045260246000fd5b6020810160038310614aec57614aec614ac2565b91905290565b600060208284031215614b0457600080fd5b611726826149e8565b8035801515811461114657600080fd5b60008060408385031215614b3057600080fd5b614b39836149e8565b9150614b4760208401614b0d565b90509250929050565b60008060208385031215614b6357600080fd5b82356001600160401b03811115614b7957600080fd5b614b85858286016148f1565b90969095509350505050565b600080600060608486031215614ba657600080fd5b614baf846149e8565b9250614bbd602085016149e8565b9150604084013590509250925092565b600060c08284031215614bdf57600080fd5b50919050565b600060208284031215614bf757600080fd5b81356001600160401b03811115614c0d57600080fd5b61202584828501614bcd565b60008060408385031215614c2c57600080fd5b50508035926020909101359150565b6020810160048310614aec57614aec614ac2565b600060e08284031215614bdf57600080fd5b600060208284031215614c7357600080fd5b81356001600160401b03811115614c8957600080fd5b61202584828501614c4f565b60006101408284031215614bdf57600080fd5b600060208284031215614cba57600080fd5b81356001600160401b03811115614cd057600080fd5b61202584828501614c95565b600060208284031215614cee57600080fd5b81356003811061172657600080fd5b60008060008060608587031215614d1357600080fd5b84359350614d23602086016149e8565b925060408501356001600160401b03811115614d3e57600080fd5b614d4a878288016148f1565b95989497509550505050565b600060208284031215614d6857600080fd5b81356001600160401b03811115614d7e57600080fd5b82016101a0818503121561172657600080fd5b600060808284031215614bdf57600080fd5b600080600060c08486031215614db857600080fd5b614dc1846149e8565b925060208401359150614dd78560408601614d91565b90509250925092565b60008060008060608587031215614df657600080fd5b843593506020850135925060408501356001600160401b03811115614d3e57600080fd5b600080600080600060a08688031215614e3257600080fd5b853594506020860135935060408601359250614e50606087016149e8565b9150614a73608087016149e8565b60008060008060e08587031215614e7457600080fd5b614e7d856149e8565b9350614e8b602086016149e8565b9250614e9960408601614b0d565b9150614ea88660608701614d91565b905092959194509250565b6020808252825182820181905260009190848201906040850190845b81811015614eeb57835183529284019291840191600101614ecf565b50909695505050505050565b600060208284031215614f0957600080fd5b81356001600160401b03811115614f1f57600080fd5b8201610100818503121561172657600080fd5b600060208284031215614f4457600080fd5b81356001600160401b03811115614f5a57600080fd5b8201610120818503121561172657600080fd5b634e487b7160e01b600052604160045260246000fd5b60405160c081016001600160401b0381118282101715614fa557614fa5614f6d565b60405290565b60405161012081016001600160401b0381118282101715614fa557614fa5614f6d565b604051601f8201601f191681016001600160401b0381118282101715614ff657614ff6614f6d565b604052919050565b60006001600160401b0382111561501757615017614f6d565b50601f01601f191660200190565b600082601f83011261503657600080fd5b813561504961504482614ffe565b614fce565b81815284602083860101111561505e57600080fd5b816020850160208301376000918101602001919091529392505050565b6000806000806080858703121561509157600080fd5b61509a856149e8565b93506150a8602086016149e8565b92506040850135915060608501356001600160401b038111156150ca57600080fd5b6150d687828801615025565b91505092959194509250565b600080600080608085870312156150f857600080fd5b843593506020850135925061510f604086016149e8565b9150614ea8606086016149e8565b600060c0828403121561512f57600080fd5b6117268383614bcd565b6000806040838503121561514c57600080fd5b82359150614b47602084016149e8565b6020815281516020820152602082015160408201526000604083015160c0606084015261518c60e08401826149a9565b9050606084015160018060a01b0380821660808601528060808701511660a08601528060a08701511660c086015250508091505092915050565b60008060a083850312156151d957600080fd5b82359150614b478460208501614d91565b600080604083850312156151fd57600080fd5b615206836149e8565b9150614b47602084016149e8565b60208152815160208201526000602083015160018060a01b0380821660408501528060408601511660608501525050606083015160c0608084015261525c60e08401826149a9565b90506080840151601f19808584030160a086015261527a83836149a9565b925060a08601519150808584030160c08601525061529882826149a9565b95945050505050565b60008083601f8401126152b357600080fd5b5081356001600160401b038111156152ca57600080fd5b6020830191508360208260051b85010111156119b957600080fd5b600080600080604085870312156152fb57600080fd5b84356001600160401b038082111561531257600080fd5b61531e888389016152a1565b9096509450602087013591508082111561533757600080fd5b50614d4a878288016152a1565b600181811c9082168061535857607f821691505b60208210811415614bdf57634e487b7160e01b600052602260045260246000fd5b8183823760009101908152919050565b60208082526031908201527f4552433732313a207472616e736665722063616c6c6572206973206e6f74206f6040820152701ddb995c881b9bdc88185c1c1c9bdd9959607a1b606082015260800190565b600060c082360312156153ec57600080fd5b6153f4614f83565b82358152602083013560208201526040830135604082015260608301356001600160401b038082111561542657600080fd5b61543236838701615025565b6060840152615443608086016149e8565b608084015260a085013591508082111561545c57600080fd5b5061546936828601615025565b60a08301525092915050565b6000808335601e1984360301811261548c57600080fd5b8301803591506001600160401b038211156154a657600080fd5b6020019150368190038213156119b957600080fd5b81835281816020850137506000828201602090810191909152601f909101601f19169091010190565b8681526001600160a01b038616602082015260a06040820181905260009061550f90830186886154bb565b60608301949094525060800152949350505050565b634e487b7160e01b600052603260045260246000fd5b600060018060a01b03808b16835289602084015288604084015260e0606084015261556960e08401888a6154bb565b951660808301525060a081019290925260c09091015295945050505050565b60006020828403121561559a57600080fd5b5051919050565b6000808335601e198436030181126155b857600080fd5b8301803591506001600160401b038211156155d257600080fd5b6020019150600581901b36038213156119b957600080fd5b60006001600160fb1b0383111561560057600080fd5b8260051b80858437600092019182525092915050565b815160009082906020808601845b8381101561564057815185529382019390820190600101615624565b50929695505050505050565b6000808335601e1984360301811261566357600080fd5b83016020810192503590506001600160401b0381111561568257600080fd5b8036038313156119b957600080fd5b6001600160a01b038816815260a060208083018290529082018790526000906001600160fb1b038811156156c457600080fd5b8760051b808a60c0860137830183810360c090810160408601528101879052600587901b810160e09081019082018960005b8a8110156157305784840360df19018352615711828d61564c565b61571c8682846154bb565b9550505091850191908501906001016156f6565b50505060608501969096525050506080015295945050505050565b6000602080838503121561575e57600080fd5b82516001600160401b038082111561577557600080fd5b818501915085601f83011261578957600080fd5b81518181111561579b5761579b614f6d565b8060051b91506157ac848301614fce565b81815291830184019184810190888411156157c657600080fd5b938501935b838510156157e4578451825293850193908501906157cb565b98975050505050505050565b6000610120823603121561580357600080fd5b61580b614fab565b8235815260208301356001600160401b038082111561582957600080fd5b61583536838701615025565b60208401526040850135604084015260608501356060840152608085013591508082111561586257600080fd5b61586e36838701615025565b608084015261587f60a086016149e8565b60a084015260c085013591508082111561589857600080fd5b6158a436838701615025565b60c08401526158b560e086016149e8565b60e0840152610100915081850135818111156158d057600080fd5b6158dc36828801615025565b8385015250505080915050919050565b600081546158f981615344565b808552602060018381168015615916576001811461592a57615958565b60ff19851688840152604088019550615958565b866000528260002060005b858110156159505781548a8201860152908301908401615935565b890184019650505b505050505092915050565b85815284602082015260018060a01b038416604082015260a06060820152600061599060a08301856158ec565b82810360808401526157e481856158ec565b6000602082840312156159b457600080fd5b81516001600160401b038111156159ca57600080fd5b8201601f810184136159db57600080fd5b80516159e961504482614ffe565b8181528560208385010111156159fe57600080fd5b61529882602083016020860161497d565b60a0815260006001600160a01b0380615a27896149e8565b1660a0840152615a3a602089018961564c565b60c080860152615a4f610160860182846154bb565b915050615a5f60408a018a61564c565b609f19808785030160e0880152615a778483856154bb565b935084615a8660608e016149e8565b16610100880152615a9a60808d018d61564c565b955092508087850301610120880152615ab48486856154bb565b9450615ac360a08d018d61564c565b9450925080878603016101408801525050615adf8383836154bb565b93505050508560208301528460408301528360608301528260808301529695505050505050565b604081526000615b1a6040830185876154bb565b9050826020830152949350505050565b606081526000615b3e6060830187896154bb565b8281036020840152615b518186886154bb565b9150508260408301529695505050505050565b634e487b7160e01b600052601160045260246000fd5b600082821015615b8c57615b8c615b64565b500390565b60008219821115615ba457615ba4615b64565b500190565b6080815284516080820152602085015160a0820152604085015160c08201526000606086015160c060e0840152615be46101408401826149a9565b60808801516001600160a01b031661010085015260a0880151848203607f1901610120860152909150615c1782826149a9565b60208501979097525050506040810192909252606090910152919050565b600060208284031215615c4757600080fd5b813560ff8116811461172657600080fd5b60006101408c8352806020840152615c728184018d6149a9565b6001600160a01b038c811660408601528482036060860152909150615c97828c6149a9565b908a16608085015283810360a08501529050615cb381896149a9565b9150508560c08301528460e083015283610100830152826101208301529b9a5050505050505050505050565b6000808354615ced81615344565b60018281168015615d055760018114615d1657615640565b60ff19841687528287019450615640565b8760005260208060002060005b85811015615d3c5781548a820152908401908201615d23565b505050959091019695505050505050565b60c08152865160c0820152600060208801516101208060e0850152615d766101e08501836149a9565b915060408a0151610100818187015260608c01518387015260808c0151925060bf1991508186850301610140870152615daf84846149a9565b935060a08c01519250615dce6101608701846001600160a01b03169052565b60c08c015192508186850301610180870152615dea84846149a9565b935060e08c01519250615e096101a08701846001600160a01b03169052565b8b01518584039091016101c08601529050615e2482826149a9565b602085019990995250505060408101949094526060840192909252608083015260a090910152919050565b60208082526032908201527f4552433732313a207472616e7366657220746f206e6f6e20455243373231526560408201527131b2b4bb32b91034b6b83632b6b2b73a32b960711b606082015260800190565b6001600160a01b0385811682528416602082015260408101839052608060608201819052600090615ed4908301846149a9565b9695505050505050565b600060208284031215615ef057600080fd5b8151611726816148be565b634e487b7160e01b600052603160045260246000fdfea2646970667358221220cd86f76806e00bf65a8b74190c6e2709d97c5084dbb62c056757af303801a47364736f6c634300080a0033",
  "linkReferences": {
    "contracts/libraries/InteractionLogic.sol": {
      "InteractionLogic": [
        {
          "length": 20,
          "start": 8385
        },
        {
          "length": 20,
          "start": 9380
        },
        {
          "length": 20,
          "start": 10429
        },
        {
          "length": 20,
          "start": 13707
        }
      ]
    },
    "contracts/libraries/ProfileTokenURILogic.sol": {
      "ProfileTokenURILogic": [
        {
          "length": 20,
          "start": 11990
        }
      ]
    },
    "contracts/libraries/PublishingLogic.sol": {
      "PublishingLogic": [
        {
          "length": 20,
          "start": 5505
        },
        {
          "length": 20,
          "start": 7070
        },
        {
          "length": 20,
          "start": 13888
        },
        {
          "length": 20,
          "start": 15570
        },
        {
          "length": 20,
          "start": 15952
        },
        {
          "length": 20,
          "start": 16282
        }
      ]
    }
  },
  "deployedLinkReferences": {
    "contracts/libraries/InteractionLogic.sol": {
      "InteractionLogic": [
        {
          "length": 20,
          "start": 8073
        },
        {
          "length": 20,
          "start": 9068
        },
        {
          "length": 20,
          "start": 10117
        },
        {
          "length": 20,
          "start": 13395
        }
      ]
    },
    "contracts/libraries/ProfileTokenURILogic.sol": {
      "ProfileTokenURILogic": [
        {
          "length": 20,
          "start": 11678
        }
      ]
    },
    "contracts/libraries/PublishingLogic.sol": {
      "PublishingLogic": [
        {
          "length": 20,
          "start": 5193
        },
        {
          "length": 20,
          "start": 6758
        },
        {
          "length": 20,
          "start": 13576
        },
        {
          "length": 20,
          "start": 15258
        },
        {
          "length": 20,
          "start": 15640
        },
        {
          "length": 20,
          "start": 15970
        }
      ]
    }
  }
}